:4000000000800020110000005D0300005D03000008B5044B1A6803F53F5302331A6000F0A5F900BFFA46004010B5054C237833B9044B13B10448AFF300800123237010BD19
:400040003081FF1F00000000B0070000084B10B51BB108490848AFF300800848036803B910BD074B002BFBD0BDE81040184700BF000000003481FF1FB0070000C880FF1FC4
:400080000000000010B500F00DFA044605E000F003FA00F061FA013CE4B2002CF7D110BD10B500F06BFA09E000F062FA044600F005FA204600F01AF800F060FA0028F3D163
:4000C00010BD00BF08B562B6064800F0E9FA064800F00EFB00F0D2F900F09EFA00F05AFAFEE700BF85000000A100000008B5622802D0692804D008BD034800F0F5F908BDB5
:40010000024800F0F1F908BDB4070000CC070000FEE700BFF0B40022174611E050F82760F3B226F0FF0608E001EB420511F812406D78A5550132013BDBB2002BF4D1013788
:40014000192FEBD9F0BC7047064B1B78DBB203F00701054A11701B09013213704422034B1A707047CF0100496E5800407658004008B50A46002100F012FB08BD38B50B22CE
:40018000264B1A801823264A1370332102321180023213700222234B1A7008224FF040231A70032103F5007319701F4B1B78DBB21E490B701E4B1A8041F25122023B1A80C0
:4001C000002419250CE01B4B1B7803F0010343EA440404F003044FF4F07000F099FA013D0DB1032CEFD115B90320FFF791FF124B4FF480721A8007221A7000220F490A70F6
:400200004820023108701A700222033B1A700C4A137843F00303137038BD00BF80400040824000400043004008010049A14600402242004025420040044000400640004091
:40024000A243004008B500F09FFA08BD38B572B6334A137843F00403137000240CE0314D630019194A0011462A44084691882858FFF77EFF0134E4B2082CF0D900240BE011
:400280002849A3001819420088188022C16B806BFFF7D8FF0134E4B2002CF1D022494FF09040FFF737FF214A137843F0020313701032137843F0020313701D4C237843F0C3
:4002C00040032370A2F58632513A137843F0100313700A2217491848FFF7B4FF082217491748FFF7AFFF082216491748FFF7AAFF164A137843F008031370154D61232B7024
:40030000FFF73CFF81232B700122124B1A70FFF71BFF0E2221461048FFF794FF38BD00BFE8460040E00700006800004803500140A043004070050048C05100407C05004874
:40034000125100408405004822510040224300400048004004000840B043004008B500F0E7F903680C2B00D1FEE7FEE708B5104E104D16E029686B68AC68002204E051F8AB
:40038000040B43F8040B0432A242F8D1E868002203E0002143F8041B04328242F9D11035013E002EE6D100F0C9F9FFF78BFEFEE7010000004808000008B5104A104B1A60B1
:4003C000104A136843F40073136000230AE0032B03D80D4A52F8231000E00C490C4A42F8231001332F2BF2D90A4B1A780A4B1A70074A0A4B1A60FFF729FF08BD0004FA0504
:400400000CED00E014ED00E0000000005D0300000080FF1FBC760040C080FF1F08ED00E07222074B1A702022013B1A700622613B1A70472210331A70002250331A7070477D
:400440008A64004010B500F06BF904460A4A137843F020031370013A137843F010031370013A137843F01003137000F0E3F8204600F05AF910BD00BF9A64004008B5054BCA
:400480001B7823B9FFF7CCFF0122024B1A70FFF7D9FF08BD4C81FF1F014B1878704700BF4A640040044B1B7813F0200F01D0012070470020704700BF69640040024B1B7814
:4004C0000BB1024B187070474C81FF1F48650040034B1B7813F0040FFAD1024B18707047686400404865004038B5074B1B782BB938BDFFF7EDFF0134A4B201E0054600242D
:40050000285D0028F5D138BD4C81FF1F08B500F007F90A4A137843F020031370013A137843F010031370013A137843F01003137000F0FAF800F08CF808BD00BF9A650040CC
:40054000014B1878704700BF69650040014B1878704700BF68650040034B1B7813F0040FFAD0024B18707047696500404A650040014B1878704700BF5A650040044B1B783F
:4005800013F0200F01D0012070470020704700BF6865004001E0044B1B78044B1B7813F0200FF8D1704700BF5A6500406865004008B501E00A4B1B780A4B1B7813F0200FFB
:4005C000F8D100F0ADF8084B1A7842F001021A701A7802F0FE021A7000F0A6F808BD00BF5A650040686500409A65004008B50F22074B1A70FFF7DCFFFFF7A2FFFFF7A6FFC1
:400600000022044B1A702022013B1A7008BD00BF8A6500408965004008B5054B1B7823B9FFF7E4FF0122024B1A70FFF76FFF08BD4E81FF1F054A137843F00203137010329A
:40064000137843F002031370704700BFA2430040054A137843F0010313701032137843F001031370704700BFA2430040014B1B685864704708ED00E04001C0B2014B187045
:40068000704700BF01E400E00222014B1A60704700E100E00222014B1A60704780E100E010B50446FFF7F6FF2046FFF7DFFF0720FFF7E2FFFFF7E8FF10BD00BF014B1B6851
:4006C0001864704708ED00E04001C0B2014B1870704700BF00E400E00122014B1A60704700E100E00122014B1A60704780E100E010B50446FFF7F6FF2046FFF7DFFF072094
:40070000FFF7E2FFFFF7E8FF10BD00BF000000000230800803D000BF01380046FCD17047EFF3108072B6704780F31088704700BF014B1868704700BF2C81FF1F0E4B70B5CD
:400740001E460E4C0025E41AA410A54204D056F8253098470135F8E700F064F8084B094C1E46E41AA4100025A54204D056F8253098470135F8E770BD300800003008000074
:40078000300800003808000010B5431E0A44914204D011F8014B03F8014FF8E710BD03460244934202D003F8011BFAE77047000000000000427574746F6E207374617465B8
:4007C000207072657373656400000000427574746F6E2073746174652069646C65000000005100401000305100404000F0510040100000000140000A800A01408005001486
:400800000140000800400140000A004C014000020050014020000000000A0140F004004880004300F8B500BFF8BC08BC9E4670474D000000B9030000F8B500BFF8BC08BCEE
:400840009E4670472900000058080000C880FF1F6800000020000000000000000000000000000000000000000000000000000000000000000000000000000000220800003C
:40088000000000000000000000000000000000000000000000000000000000000000000000000000000000000000000000000000000000000000000000000000CC80FF1FCE
:4008C00000000000000000000000000000000000000000000000000000000000000000000000000000000000000000000000000000000000000000000000000000000000F8
:4009000000000000000000000000000000000000000000000000000000000000000000000000000000000000000000000000000000000000000000000000000000000000B7
:400940000000000000000000000000000000000000000000000000000000000000000000000000000000000000000000000000000000000000000000000000000000000077
:400980000000000000000000000000000000000000000000000000000000000000000000000000000000000000000000000000000000000000000000000000000000000037
:020000040003F7
:0200000480007A
:400000000452004003640040016500400107014058080140450901400C0A0140350B01400117014050180140411901405C1A0140441B01400340014002410140024201400B
:40004000044301400244014003450140024601400547014003480140044C0140084D014004500140015101400880100111016440880F89388A728A0FE60201200471050A2E
:4000800006060714130815131608170C182C19131A431B041E0C24802613271528712A0E2D032F1430303110330F340F352036C038823A203B083E013F114004470449FFF4
:4000C0004A074BFF4C404D204EF04F0550085401580459045A045B045C115D115F01604061A862406320850389038C028D028E0D9009910392369423960C97039A109E4072
:400100009F03A005A101A23AAA40AB03B00FB103B430B640BA02BB08BE40D418D604D804D904DB04DC10DD10DF010040072009080A050B800C080E0A104012041410161093
:400140001710184019401A041B011C081D021E0A21042201260827A829102B802C102F02318133083609371039683C083D01400441104502540856185A025D015F986140DE
:400180006220634087408A049110920194059548962099119A049F04A012A180A220A788B040C021C2EFC46ACA55CCEBCECED080D6F1D80D8A018C019401A402AE01B002E4
:4001C000B601B880BE01D804DC01DF010044012003800440051009080A800B080D0410801140132815801704184019B11A011C801D4021C0226429542B8030803101321003
:400200003308382039883A083B0A404141084208430849804B0252045A0868126910709071047328C0CFC22EC4AFCA0FCC0FCE0FD00FD208D602E6080280044205DC0608FA
:40024000072208110A220B0310021109120D13D0148D151017AC188D1B201C621E14208D248D251027402840290C2B712C0D2D142E80300F33E03480351F36703A823B0861
:400280003E104063410245E0460B47C0482649FF4AFF4BFF4EF04F44500C54405604580459045A045B045C105D015F0166C06A406B028022825188E78C448E3198019A0E98
:4002C000A8E7AC80B060B280B407B618BE40D409D804DB04DC01DF0100620140041006600A040C680E801002111015861604172018451A041B081E811F50251027142C048D
:400300002E88341036093C083D2040104108441447104D014E085680570259055A405B2061406652672086029110940595419620978098109A089C409F14A016A209A30132
:40034000A508A78AB312C07BC2F2C4F3CA70CCE0CE60D060D220D60FD8F80060048408010C84105612091407163818041C0A1E10200422802301248428802A043008327F1D
:4003800034803501360238083E51404141034220440545BE46FD470C481F49FF4AFF4BFF4C224EF04F08500456025720580459045A045B045C105F0162C0644065016610F7
:4003C000671168C069016B116C406D016E406F018021810482D88309840288388AC08C988E0294029503969897049898990E9A029CFC9E03A09AA49AA813AA64AD05AF0AA0
:40040000B00FB213B30FB4E0B908BA22D804D904DF010090010E0408051006800702084A09280B020C280E011028130214081506181419401A401D3A1F01221027102B809C
:400440002F01340837103E014006410A428149064A02500452546302686869826B02720280148101820288018B808D088E029201958696609C409D459E54A301A429A508DB
:40048000A780B221C0FFC2EFC47ECA11CC60CE80D00FD208D808E201E40133803620CC30A620A780A620A7808620A620A780E6407108DC015F80A508D6049F80A5088B80AF
:4004C0009F80B108E404EC048780A780E61009105F02C202D60110408110830288409F02A110C408E20100030C0310031C03000F01000040033F00000F083000333C0C024A
:400500001C272318000033033F0000040010000008040000041800000C3C0001020000400F0000202C401C1F00002280000000144302050001E0000C12FFFFFF62A0F041FC
:400540000C0000000000021204040404111100010000000000004002001030100010101200000000000000000000000000000000800040808000800000000000408B8B00CE
:4005800080000000000101000100000000000000000000000000000000000000000000000000000000000000000000000000000000000000000000000000000000000000B8
:4005C00000000000000000000000000000000000000000000000000000000000000000000000000000000000000000000000000000000000000000000000000000000000FB
:4006000000000000000000000000000000000000000000000000000000000000000000000000000000000000000000000000000000000000000000000000000000000000BA
:40064000000000000000000000000000000000000000000000000000000000000000000000000000000000000000000000000000000000000000000000000000000000007A
:40068000000000000000000000000000000000000000000000000000000000000000000000000000000000000000000000000000000000000000000000000000000000003A
:0200000490006A
:0400000000004005B7
:0200000490105A
:04000000BC90ACAF55
:0200000490303A
:02000000508A24
:0200000490402A
:4000000000000000000000000000000000000000000000000000000000000000000000000000000000000000000000000000000000000000000000000000000000000000C0
:400040000000000000000000000000000000000000000000000000000000000000000000000000000000000000000000000000000000000000000000000000000000000080
:400080000000000000000000000000000000000000000000000000000000000000000000000000000000000000000000000000000000000000000000000000000000000040
:4000C0000000000000000000000000000000000000000000000000000000000000000000000000000000000000000000000000000000000000000000000000000000000000
:0200000490501A
:0C00000000012E16106900012E1A60F39A
:00000001FF