:400000000080002011000000D9070000D907000008B5044B1A6803F53F5302331A6000F0E3FB00BFFA46004010B5054C237833B9044B13B10448AFF300800123237010BDD9
:400040003881FF1F00000000180C0000084B10B51BB108490848AFF300800848036803B910BD074B002BFBD0BDE81040184700BF000000003C81FF1F180C0000C880FF1FDA
:400080000000000008B562B6114800F097FC114800F062FD00F030FC00F036FD0E4800F061FC0E4800F05EFC0D4800F05BFC0D4800F058FC0C4800F055FC0C4800F052FC09
:4000C0000B4800F04FFC0B4800F04CFCFEE700BF25020000750500001C0C0000400C0000500C0000600C0000700C00007C0C0000880C00009C0C000008B5034800F032FC00
:400100000022024B1A7008BDB00C00005481FF1F08B5034800F026FC0122024B1A7008BDBC0C00005481FF1F08B5034800F01AFC0222024B1A7008BDC80C00005481FF1F29
:4001400008B5034800F00EFC0322024B1A7008BDD40C00005481FF1F054B5B781BB90122034B5A7070470022014B5A70704700BF5481FF1F044B1B8841F28732934202D8D2
:40018000FA33014A13807047CC80FF1F054B1A88531E9BB241F287318B4202D8FA3A014B1A807047CC80FF1F08B53138462837D8DFE800F024272A2D3036363636363636F0
:4001C000363636363636363636363636363636363636363636363636363636363636363636363636363636363636363636363636363636363236363636363400FFF77CFF22
:4002000008BDFFF785FF08BDFFF78EFF08BDFFF797FF08BDFFF7A0FFFFF7ACFFFFF7B6FF08BD00BF38B500F07BFB044609E000F071FB054600F080FB2846FFF7B5FF013CCF
:40024000E4B2002CF3D138BD38B59D4B1B781BB1012B00F0B98038BD994B5B7813B1012B59D038BD964B9B78032B00F27881DFE803F0022A163E934800F074FB924B987852
:4002800000F0C2FB8E4CE07800F0A6FBE07800F0AFFBE07800F0C4FB0223A37038BD8B4800F060FB864CE07800F0AEFB864B987800F092FBE07800F09BFBE07800F0B0FB98
:4002C0000123A37038BD824800F04CFB7C4CE07800F09AFBE07800F07FFB7B4B987800F087FBE07800F09CFB0323A37038BD794800F038FB724CE07800F086FBE07800F062
:400300006BFBE07800F074FB6F4B987800F088FB0023A37038BD6A4B9B78032B00F21F81DFE803F0022A3E16664800F01BFB664B987800F069FB624CE07800F04DFBE07817
:4003400000F056FBE07800F06BFB0323A37038BD604800F007FB5A4CE07800F055FBE07800F03AFBE07800F043FB574B987800F057FB0123A37038BD554800F0F3FA504C4F
:40038000E07800F041FBE07800F026FB4E4B987800F02EFBE07800F043FB0223A37038BD4A4800F0DFFA464CE07800F02DFB464B987800F011FBE07800F01AFBE07800F03C
:4003C0002FFB0023A37038BD3D4B5B7813B1012B59D038BD3A4B9B78032B00F2C080DFE803F0022A163E3C4800F0BCFA364CA07800F00AFBA07800F0EFFA314CE07800F09E
:40040000F7FAE07800F00CFB0223A37038BD334800F0A8FA2A4CE07800F0F6FA2A4DA87800F0DAFAA87800F0E3FAE07800F0F8FA0123A37038BD2A4800F094FA204CE07832
:4004400000F0E2FAE07800F0C7FA1F4DA87800F0CFFAA87800F0E4FA0323A37038BD214800F080FA184DA87800F0CEFA144CE07800F0B2FAE07800F0BBFAA87800F0D0FA0B
:400480000023A37038BD0E4B9B78032B67D8DFE803F0023F532B104800F064FA0A4CA07800F0B2FAA07800F097FA054CE07800F09FFAE07800F0B4FA0323A37038BD00BF61
:4004C0005481FF1FDC0C0000CC80FF1FE00C0000E40C0000E80C0000EC0C0000F00C0000F80C0000000D00001D4800F03BFA1D4DA87800F089FA1C4CE07800F06DFAE078EC
:4005000000F076FAA87800F08BFA0123A37038BD164800F027FA144CE07800F075FAE07800F05AFA0F4DA87800F062FAA87800F077FA0223A37038BD0D4800F013FA0A4C5A
:40054000E07800F061FA074DA87800F045FAA87800F04EFAE07800F063FA0023A37038BD000D0000CC80FF1F5481FF1FF80C0000F00C000008B5074A938801339BB29380E6
:40058000054A1288934204D1FFF75EFE0022014B9A8008BD5481FF1FCC80FF1FFEE700BFF0B40022174611E050F82760F3B226F0FF0608E001EB420511F812406D78A55510
:4005C0000132013BDBB2002BF4D10137102FEBD9F0BC7047064B1B78DBB203F00701054A11701B09013213704422034B1A707047CF0100496E5800407658004008B50A462C
:40060000002100F000FB08BD38B53322244B1A80182202331A70022203F27E231A7008224FF040231A70032103F5007319701D4B1B78DBB21C490B701C4B1A8041F25122E4
:40064000023B1A80002419250CE0194B1B7803F0010343EA440404F003044FF4F07000F08BFA013D0DB1032CEFD115B90320FFF795FF104B4FF480721A8007221A7000227A
:400680000D490A704820023108701A700222033B1A700A4A137843F00103137038BD00BF8040004008010049A146004022420040254200400440004006400040A2430040A1
:4006C00008B500F095FA08BD38B572B6334A137843F00403137000240CE0314D630019194A0011462A44084691882858FFF786FF0134E4B2092CF0D900240CE02848A200A0
:4007000011194B000344B3F84420196CD86BFFF7D7FF0134E4B2012CF0D922494FF09040FFF73EFF204A137843F0020313701032137843F0020313701C4C237843F040033B
:400740002370A2F58632513A137843F0100313700A2217491748FFF7B3FF082216491748FFF7AEFF082216491648FFF7A9FF164A137843F008031370144D61232B70FFF7F3
:4007800043FF81232B700122114B1A70FFF722FF0E2221460F48FFF793FF38BDE8460040080D00004400004803500140A04300402C030048C0510040380300481251004079
:4007C0004003004822510040224300400048004004000840B043004008B500F0DDF903680C2B00D1FEE7FEE708B5104E104D16E029686B68AC68002204E051F8040B43F8D0
:40080000040B0432A242F8D1E868002203E0002143F8041B04328242F9D11035013E002EE6D100F0BFF9FFF72DFCFEE701000000800D000008B5104A104B1A60104A1368CE
:4008400043F40073136000230AE0032B03D80D4A52F8231000E00C490C4A42F8231001332F2BF2D90A4B1A780A4B1A70074A0A4B1A60FFF729FF08BD0004FA050CED00E07B
:4008800014ED00E000000000D90700000080FF1FBC760040C080FF1F08ED00E07222074B1A70202201331A7006225F3B1A70472210331A70002251331A707047886500402E
:4008C00010B500F061F904460A4A137843F0200313700132137843F0100313700232137843F01003137000F0A7F8204600F050F910BD00BF9865004008B5054B1B7823B965
:40090000FFF7CCFF0122024B1A70FFF7D9FF08BD5A81FF1F014B1878704700BF48650040044B1B7813F0200F01D0012070470020704700BF69650040024B1B780BB1024BE7
:40094000187070475A81FF1F4B650040034B1B7813F0040FFAD1024B187070476B6500404B65004038B5074B1B782BB938BDFFF7EDFF0134A4B201E005460024285D0028EC
:40098000F5D138BD5A81FF1F014B1B685864704708ED00E04001C0B2014B1870704700BF01E400E00222014B1A60704700E100E00222014B1A60704780E100E010B5044657
:4009C000FFF7F6FF2046FFF7DFFF0720FFF7E2FFFFF7E8FF10BD00BF044A137803F07F03C001C0B218431070704700BF10510040044A137803F0FE0300F00100184310705F
:400A0000704700BF20510040044A137803F0BF03800100F0400018431070704710510040044A137803F0FD03400000F0020018431070704720510040054A137843F00103CB
:400A400013701032137843F001031370704700BFA2430040084A137843F0010313701032137843F00103137002F64D32137843F001031370704700BFA3430040014B187087
:400A8000704700BF034F0040014B1880704700BF044F0040014B1880704700BF064F004008B5164A137803F0010313700232137803F0FC031370124B1A7802F0CF021A70C0
:400AC0001A7842F030021A701A7802F0F0021A701A7842F00F021A700A4A137843F00103137045F6BF50FFF7CFFF45F6BF50FFF7D1FF0820FFF7C2FF08BD00BF004F00406E
:400B00000B4F0040014F004008B5054B1B7823B9FFF7C6FF0122024B1A70FFF79BFF08BD5C81FF1F014B1B681864704708ED00E04001C0B2014B1870704700BF00E400E072
:400B40000122014B1A60704700E100E00122014B1A60704780E100E010B50446FFF7F6FF2046FFF7DFFF0720FFF7E2FFFFF7E8FF10BD00BF000000000230800803D000BF4C
:400B800001380046FCD17047EFF3108072B6704780F31088704700BF014B1868704700BF3081FF1F0E4B70B51E460E4C0025E41AA410A54204D056F8253098470135F8E7EA
:400BC00000F0CCF8084B094C1E46E41AA4100025A54204D056F8253098470135F8E770BD680D0000680D0000680D0000700D000010B5431E0A44914204D011F8014B03F898
:400C0000014FF8E710BD03460244934202D003F8011BFAE7704700000000000044432D4D6F746F722D50574D206170706C69636174696F6E20737461727465640D0A00000B
:400C4000313A205761766544726976650D0A0000323A2046756C6C537465700D0A000000333A2048616C66537465700D0A000000343A2053746F700D0A000000353A20528C
:400C80006F746174650D0A00713A20496E6372656173652073706565640D0A00773A2044656372656173652073706565640D0A0057617665447269766500000046756C6C6E
:400CC000537465700000000048616C66537465700000000053746F70000000004100000042000000412F0000422F0000412B4200422B412F00000000412F2B422F000000A0
:400D0000422F2B4100000000004F00400C00005100401000305100404000F0510040100000000140001000140140000480180140800300400140000A004C01400002005098
:400D40000140200060520040A4020048060000180140AC020048800043000000F8B500BFF8BC08BC9E4670474D00000035080000F8B500BFF8BC08BC9E4670472900000069
:400D8000900D0000C880FF1F700000002800000000000000E80301000000000000000000000000000000000000000000000000000000000000000000580D00000000000047
:400DC0000000000000000000000000000000000000000000000000000000000000000000000000000000000000000000000000000000000000000000D080FF1F0000000085
:400E000000000000000000000000000000000000000000000000000000000000000000000000000000000000000000000000000000000000000000000000000000000000B2
:400E40000000000000000000000000000000000000000000000000000000000000000000000000000000000000000000000000000000000000000000000000000000000072
:400E80000000000000000000000000000000000000000000000000000000000000000000000000000000000000000000000000000000000000000000000000000000000032
:400EC00000000000000000000000000000000000000000000000000000000000000000000000000000000000000000000000000000000000000000000000000000000000F2
:020000040003F7
:0200000480007A
:40000000024F0040036500400115014001170140151801403E1901406C1A01404C1B0140034001400241014004420140014301400548014003490140084D0140025001400A
:400040000151014001800A36887289388B0FE601E204820883018404920296089A02A401A801AC01B002B204B408B501B601BE15D418D604D804D904DB04DF0100010320E5
:400080000501071409150C840D2210281180144016021728180419081A021B011C111D211F1022202501260227112C842E402F14310232013440350136A037043A023EAA51
:4000C0004522468047444E0255145B015C10600463826C286D906E1474807628772883408E408F10C07CC2FEC4F7CAF0CCF0CEF1D0F0D210D621D80D000C02710410058088
:4001000006AC07130A030F0C100912D01414152C174319711B061F08201021712240230E262028DC2A2230E031C0330F341F3530380839223A023B083E043F1040024540E3
:4001400049FF4A074BFF4C404D204EF04F055008580459045A045F01604061A862406320801381048204830A8420850C86C08813890C8A0C9208940A961498E099109C80E9
:400180009D089E209F06A003A214A615A8E0AB01AC40AE20B010B103B2E0B310B40FB70CBA20BB20BE01BF05C026C105C50BC6ECC80DC9FFCAFFCBFFCEF0CF44D00CD401CE
:4001C000D804D904DA04DB04DF01E6C0EA40EB020001012003100401051106200A200B400D880E040F401080110412081514164219251D101E401F04200421082208234005
:40020000242025802680274429012B402E202F0430803118331035203680380839043B403E164004471048804C044E104F805004564057205D0A5E405F1081068320864076
:4002400087108A028C1091109214970899089E029F44A680A720C07EC2FCC4FECA21CC3ECEEAD024D230D6F032803580CC309D80A68012809D80A680C4109D8065048180CB
:400280009D80D880E22081049D04E6801040771088408F10C408DE04E201E40210011C01000E000080800000400000001F4460001C0863007F180000000000E3001C23E126
:4002C00003FF000073000C04088000000210000004E700180CC00000013C00C22C38101F0F0040C08000220800000400240305000100C00E18FFFFFF62A0F0410C00000072
:40030000000002110404040400000001000000000000400200103010001010120000000000000000000000000000000080004080800080000000000000CBCB0000000000FF
:400340000003030000000000000000000000000000000000000000000000000000000000000000000000000000000000000000000000000000000000000000000000000077
:40038000000000000000000000000000000000000000000000000000000000000000000000000000000000000000000000000000000000000000000000000000000000003D
:4003C00000000000000000000000000000000000000000000000000000000000000000000000000000000000000000000000000000000000000000000000000000000000FD
:4004000000000000000000000000000000000000000000000000000000000000000000000000000000000000000000000000000000000000000000000000000000000000BC
:40044000000000000000000000000000000000000000000000000000000000000000000000000000000000000000000000000000000000000000000000000000000000007C
:0200000490006A
:0400000000004005B7
:0200000490105A
:04000000BC90ACAF55
:0200000490303A
:02000000E2B567
:0200000490402A
:4000000000000000000000000000000000000000000000000000000000000000000000000000000000000000000000000000000000000000000000000000000000000000C0
:400040000000000000000000000000000000000000000000000000000000000000000000000000000000000000000000000000000000000000000000000000000000000080
:400080000000000000000000000000000000000000000000000000000000000000000000000000000000000000000000000000000000000000000000000000000000000040
:4000C0000000000000000000000000000000000000000000000000000000000000000000000000000000000000000000000000000000000000000000000000000000000000
:0200000490501A
:0C00000000012E16106900012E1BF31EDB
:00000001FF